:020000040800F2
:10000000E80E0020350200081D1900081519000827
:1000100019190008FD030008F91900080000000084
:10002000000000000000000000000000251900088A
:100030000104000800000000211900082919000827
:100040004F0200084F0200084F0200084F0200084C
:100050004F0200084F0200084F0200084F0200083C
:100060004F0200084F0200084F0200084F0200082C
:100070004F0200084F0200084F0200084F0200081C
:100080004F0200084F0200084F0200080000000065
:100090000000000000000000000000004F02000807
:1000A0004F0200084F0200084F0200084F020008EC
:1000B000ED1900084F0200084F0200084F02000827
:1000C0004F0200084F0200084F0200084F020008CC
:1000D0004F0200084F0200084F0200080000000015
:1000E0004F0200084F0200084F0200080000000005
:1000F0000000000000000000000000004F020008A7
:10010000000000004F0200084F0200084F020008E4
:1001100000000000000000000000000000000000DF
:100120004F0200084F0200084F0200084F0200086B
:100130004F02000800000000000000000000000066
:100140000000000000000000000000004F02000856
:100150004F0200084F0200084F0200084F0200083B
:100160004F0200084F0200080000000000000000DD
:10017000000000000000000000000000000000007F
:10018000000000004F020008000000000000000016
:100190004F02000800F002F800F03CF80AA090E8D6
:1001A000000C82448344AAF10107DA4501D100F032
:1001B00031F8AFF2090EBAE80F0013F0010F18BFC3
:1001C000FB1A43F001031847383100005831000092
:1001D000103A24BF78C878C1FAD8520724BF30C873
:1001E00030C144BF04680C60704700000023002445
:1001F00000250026103A28BF78C1FBD8520728BF37
:1002000030C148BF0B6070471FB502F0CFFF1FBD64
:1002100010B510BD00F0BCF81146FFF7F5FF01F076
:10022000B3FC00F0DAF803B4FFF7F2FF03BC00F010
:10023000DDF800000948804709480047FEE7FEE76F
:10024000FEE7FEE7FEE7FEE7FEE7FEE7FEE7FEE786
:1002500004480549054A064B70470000D9190008B3
:1002600095010008E8080020E80E0020E80A0020B8
:10027000E80A002053EA020C00F069802DE9F04BF7
:100280004FF00006002B1FBFB3FA83F503FA05F405
:1002900024FA05F65E4012BF1643B2FA82F502FA5E
:1002A00005F4C5F120051EBF22FA05FC44EA0C0442
:1002B000203556EA044C4FEA144418BF641C4FF032
:1002C00000084FF00009904271EB030C39D300296C
:1002D00019BFB1FA81F701FA07F6B0FA80F700FA10
:1002E00007F6C7F120071EBF20FA07FC46EA0C06F6
:1002F0002037B6FBF4FCA7EB0507103F07F01F0BF8
:10030000CBF120062CFA06F60CFA0BFB44BFB346E1
:100310000026202FA4BF5E464FF0000B5BEA060CC0
:1003200008BF4FF0010B19EB0B0948EB0608ABFBBC
:10033000027C06FB02CC0BFB03CCC01B71EB0C0157
:10034000C1E70B46024641464846BDE8F08B13B56F
:10035000084318BF4FF0FF300146AFF30080BDE8FF
:100360001C40704770477047704710B500F008F8A0
:10037000006810BD10B5044600F002F8046010BD1E
:1003800000487047200000200048704720000020EF
:100390007546FFF7F9FFAE4605006946534620F063
:1003A0000700854618B020B5FFF752FFBDE8204092
:1003B0004FF000064FF000074FF000084FF0000B21
:1003C000AC46ACE8C009ACE8C009ACE8C009ACE890
:1003D000C00921F007018D46704710B50446AFF300
:1003E00000802046BDE81040FFF71DBF01491820DE
:1003F000ABBEFEE72600020070470000FEE70000EB
:10040000704700002DE9F04F82B000F13E4241F20A
:10041000000502F1FF77C4F2020507224FEAB72672
:10042000A84208BF0422042E38BF4FEAB7224FF07B
:10043000010A002400274FF00008009208E000BFE6
:10044000023708F10108202F04F1040400F0B48001
:100450000E680AFA08F916EA090FF1D0D1F804A0DB
:100460000AF0030BABF10106012E17D803228668B0
:1004700002FA07FECA6826EA0E06BA4032438260D4
:100480004268CAF3001522EA090205FA08F54FEAA4
:10049000480C6FEA0E062A4342600BE00322BA4082
:1004A000D643BBF1030FBC4604D1BC464FF0030B4F
:1004B00022E000BFC2688D68324005FA0CF52A437D
:1004C000BBF1020FC26017D16FF0030202EA5802BB
:1004D000024404F01C030F25D2F820E005FA03FAC9
:1004E0000D692EEA0A0E05FA03F343EA0E031362BE
:1004F000D1F804A00AF0030B02680BFA0CF33240A7
:100500001A431AF4403F4FF0010A026098D00022CB
:1005100043F644030192C4F202031A6843F6004E04
:1005200042F480421A601A68C4F2010E02F480425A
:100530000192019A28F003024FF6084C7244CFF65C
:10054000FF7C52F80C3004F00C060F25B540AB438D
:10055000009D05FA06F6334342F80C30DEF8082019
:100560004B6842EA090643F60C4CDD0258BF22EA0A
:100570000906CEF80860C4F2010CDCF800209D02E8
:1005800042EA090658BF22EA0906CCF80060DEF804
:1005900004209D0342EA090658BF22EA0906CEF864
:1005A0000460DEF80020DB0342EA090658BF22EAB5
:1005B0000906CEF8006043E702B0BDE8F08F000006
:1005C00040F6E400C2F200000068704740F21000FC
:1005D00040F6E401C2F20000C2F2000100780A68AD
:1005E000104408607047000080B543F60040C4F234
:1005F0000200016841F400710160016841F480610A
:100600000160016841F480710160032000F084F80A
:100610000F2000F005F800F027F8002080BD000052
:1006200070B540F21006C2F2000640F218013278AE
:10063000C2F200014FF47A730968B3FBF2F2044688
:10064000B1FBF2F1084600F019FB0F2C4FF0010549
:1006500008D838B94FF0FF3021460022002500F0BD
:100660002FF87460284670BD82B0002043F6400128
:100670000190C4F202014A6842F480424A604A682A
:1006800002F480420192019A0090086840F0805084
:100690000860086800F080500090009802B0704731
:1006A000002848BF704700F01F01012202FA01F143
:1006B0004EF200124009CEF2000242F820107047BC
:1006C00010B54EF60C5CCEF2000CDCF80030C3F333
:1006D000022E8EF00704042C28BF0424BEF103036D
:1006E0004FF0FF3E0EFA04F438BF0023A1439940B7
:1006F0000EFA03F39A43114300F00F02043A6244E6
:1007000009010C3200F16043B0F1FF3FC8BF03F5AF
:100710006442117010BD00004EF60C51CEF2000183
:100720000A684FF6FF031A4060F30A2242F0806025
:1007300040F0FD70086070472DE9F041002800F09E
:100740008B8043F60808C4F202080446D8F8F80380
:100750000D4600F00700884207D288F8F853D8F811
:10076000F80300F00700A84276D12068810717D56A
:10077000410705D5D8F8001041F4E051C8F8001041
:10078000010705D5D8F8001041F46041C8F8001001
:10079000D8F80010A26821F0F0011143C8F8001049
:1007A000C0073FD1D8F8F80300F00700A84207D9E6
:1007B00088F8F853D8F8F80300F00700A8424BD1A6
:1007C0002068410707D5D8F80010E26821F4E0510D
:1007D0001143C8F80010000708D5D8F800002169B7
:1007E00020F4604040EAC100C8F8000000F054F86E
:1007F000D8F8001043F2F022C1F30311C0F6000252
:10080000515C40F2180220FA01F140F21400C2F2E9
:1008100000000068C2F200021160FFF701FF002033
:10082000BDE8F0816068811E022907D258F8081CD3
:1008300089015CBF0120BDE8F08111E0012807D1EA
:1008400058F8081C89035CBF0120BDE8F08107E06F
:1008500058F8081C890703D40120BDE8F08100BFC7
:10086000D8F8001021F003010843C8F80000FFF792
:10087000A7FE064641F28837D8F80000616800F00C
:100880000C00B0EB810F8DD0FFF79AFE801BB842B1
:10089000F2D90320BDE8F08110B543F60404C4F298
:1008A0000204606800F00C0008280BD0042819BF6F
:1008B00042F20040C0F2F40047F64000C0F27D1062
:1008C00010BD00BF206821682368490247F6400137
:1008D000C0F27D1100F03F02C3F388105CBF42F20A
:1008E0000041C0F2F401A1FB00010023FFF7C2FCAC
:1008F00021680222C1F3014102EB4101B0FBF1F09A
:1009000010BD00002DE9F04182B000286AD00446F5
:10091000007843F60006C007C4F202060BD0B068A8
:1009200000F00C00042840F0A1803068800302D55C
:100930006068002856D0207880071AD5B06810F07B
:100940000C0F09D0B06800F00C00082840F0A88017
:100950007068400200F1A4803068800702D5E0682A
:1009600001283FD13068216920F0F80040EAC10039
:1009700030602078000739D4207840074ED4A5692C
:100980005DB3B06800F00C00082840F0BD80012D78
:1009900028D07068E16900F480028A4222D1216A7D
:1009A00000F03F028A421DD147F6C071626A0140E1
:1009B000B1EB821F16D1A26A0023CFF6FF7303EBBF
:1009C000C23200F440316FF30F0291420AD1E16A62
:1009D00000F07060B0EB016F04D1002002B0BDE800
:1009E000F08100BF012002B0BDE8F08160690028FD
:1009F00040F20000C4F2472076D00121C0F8801EEA
:100A0000FFF7DEFD054600BF706F8007B4D4FFF727
:100A1000D7FD401B0228F7D9DDE000BF306C10F095
:100A200080580AD100200190306C40F08050306432
:100A3000306C00F080500190019847F20007C4F23A
:100A400000073868C00541D4386840F480703860C9
:100A5000FFF7B6FD054600BF3868C00536D4FFF77E
:100A6000AFFD401B0228F7D9B5E000BFB06800F029
:100A70000C00082803D1706840023FF556AF60684B
:100A8000B0F5803F07D0B0F5A02F40F08D803068E2
:100A900040F480203060306840F4803030608DE079
:100AA000E068002852D00020C4F2472001210160F4
:100AB000FFF786FD054600BF306880073FF552AF5F
:100AC000FFF77EFD401B0228F6D984E0A0680128CC
:100AD00005D005284ED1306F40F004003067306FEC
:100AE00040F0010030674FE00021C0F8801EFFF7A2
:100AF00067FD0546706F80077FF53EAFFFF760FD2D
:100B0000401B0228F6D966E00027C4F247270020E0
:100B10003866FFF755FD022D05460BD13068800180
:100B20005ED5FFF74DFD401B02284FF00300F5D9BD
:100B300054E700BF306880017FF54FAFFFF740FDFD
:100B4000401B02284FF00300F4D947E70020C4F20D
:100B5000472000210160FFF733FD0546306880071C
:100B60007FF507AFFFF72CFD401B02284FF0030075
:100B7000F4D933E7316F002821F001013167316F7B
:100B800021F0040131674DD0FFF71AFD054641F20F
:100B9000883700BF306F800756D4FFF711FD401B28
:100BA000B842F7D917E000BF3168002821F480313E
:100BB0003160316821F4802131604FD0FFF700FDB2
:100BC000054600BF306880033FF5B5AEFFF7F8FC7F
:100BD000401B6428F6D9032002B0BDE8F08100BFB5
:100BE00004F11C052FCD08430021CFF6FF7140EA28
:100BF000821001EBC3316FF30F0140EA0560084337
:100C0000706001203866FFF7DBFC04463068800125
:100C10003FF5E3AEFFF7D4FC001B02284FF00300C2
:100C2000F4D9DBE6FFF7CCFC054641F2883700BF7C
:100C3000306F800708D5FFF7C3FC401BB8424FF068
:100C40000300F5D9CAE600BFB8F1000F7FF497AEF4
:100C5000306C20F08050306491E600BFFFF7B0FCAC
:100C6000054600BF306880037FF565AEFFF7A8FC3E
:100C7000401B64284FF00300F4D9AFE6411E00206A
:100C8000B0EB116F1CBF012070474EF21002CEF284
:100C9000000251604EF62351CEF20001F0230B709A
:100CA0000721906011607047704700007047000096
:100CB000B0B590F83C20012A04BF0220B0BD01F17C
:100CC00008053CCDD1E900CE23F47C5322F47052C8
:100CD0001A432EF4F0431A432CF4E0431A4324F44D
:100CE000C0431A432A43C96922F48042036811436E
:100CF0005964002180F83C100846B0BD10B590F84A
:100D00003C20012A4FF002023ED080F83D200268CC
:100D1000D2F804E0D2F808C00C682EF07003234328
:100D200040F6FF34C4F20004A242536010DCB2F17A
:100D3000804F1ED040F20043C4F200039A4218D004
:100D400040F60003C4F200039A4212D016E000BF3E
:100D500040F60043C4F200039A420AD044F2000372
:100D6000C4F201039A4204D00023C4F201039A4260
:100D700004D149682CF080031943916001210022BD
:100D800080F83D1080F83C20104610BD41B1082984
:100D900010D0042914BF00F1450200F143020BE01A
:100DA00090F84220012A1CBF01207047022280F8DF
:100DB000422013E000F144021278012A1CBF0120F6
:100DC00070470222082907D0042914BF80F8452063
:100DD00080F8432002E000BF80F84420006801F062
:100DE0001F010422036A02FA01F123EA01020262EE
:100DF000026A11430162416C40F6FF32C4F2000204
:100E000041F400419042416410DCB0F1804F1ED0AB
:100E100040F20041C4F20001884218D040F60001BF
:100E2000C4F20001884212D018E000BF40F6004131
:100E3000C4F2000188420AD044F20001C4F2010168
:100E4000884204D00021C4F20101884206D18168A1
:100E500001F00701062904BF00207047016841F036
:100E60000101016000207047002804BF0120704785
:100E700010B5044690F83D0028B9002084F83C00E5
:100E8000204600F08FF8022084F83D00206840F2F0
:100E9000FF730268C4F2000340F2000C9842C4F2EF
:100EA000010C1DDD40F60001C4F20001884220D093
:100EB00060451ED040F60041C4F20001884218D0BF
:100EC0004FF6FF71C4F2000188421CDC984225DC19
:100ED000B0F1804F3AD040F20041C4F2000133E05B
:100EE000B0F1804F05D040F20041C4F200018842C9
:100EF000E6D1A16822F070020A434FF6FF71C4F2F6
:100F000000018842E2DD44F2FF31C4F2010188426F
:100F100010DC60451AD044F2000113E040F60001F5
:100F2000C4F20001884211D040F60041C4F2000131
:100F30000AE000BF44F60001C4F20101884205D076
:100F400044F20041C4F20101884203D1216922F434
:100F500040720A43A36922F08001D4F804E0E268F9
:100F6000194360450160C262C0F828E002D161699E
:100F7000CCF8301001214161002084F8461084F83B
:100F80003E1084F83F1084F8401084F8411084F833
:100F9000421084F8431084F8441084F8451084F813
:100FA0003D1010BD80B582B00068B0F1804F15D003
:100FB0000021C4F2010188420ED10020019043F6C5
:100FC0004000C4F20200416841F001014160406804
:100FD00000F001000190019802B080BD0020009057
:100FE00043F64000C4F202000168002241F0010112
:100FF00001600068002100F00100009000981C20B2
:10100000FFF75EFB1C2002B0BDE88040FFF748BB45
:1010100090F83D1001291CBF01207047022180F883
:101020003D10006840F6FF32C168C4F200029042F1
:1010300041F00101C1600FDCB0F1804F1DD040F2E2
:101040000041C4F20001884217D040F60001C4F20A
:101050000001884211D017E040F60041C4F20001BF
:1010600088420AD044F20001C4F20101884204D04F
:101070000021C4F20101884206D1816801F0070114
:10108000062904BF00207047016841F0010101609A
:101090000020704780B590F83C20012A4FF00202F2
:1010A00000F0C28080F83D20D0F800C04FF6777283
:1010B000DCF8083023EA0202CCF808200B684F2B3A
:1010C00028DC1F2B44DD202B45D0302B43D0402B78
:1010D00040F0AC80D1F804E0C968DCF82030DCF8DE
:1010E000202022F00102CCF82020DCF8182022F089
:1010F000F00242EA011123F00A0242EA0E02CCF8A1
:101100001810CCF82020DCF8081041F0470121F03D
:10111000300180E06F2B27DDB3F5005F48D0B3F5D9
:10112000805F7AD0702B40F08180D1E901E3C968FB
:10113000DCF8082043EA0E0322F47F4243EA01214F
:101140001143CCF80810DCF8081041F0770162E098
:101150000BB1102B6AD1DCF8081021F07001194393
:1011600041F0070157E000BF502B35D0602B5DD117
:10117000D1F804E0C968DCF8203023F01003CCF883
:101180002030DCF81830DCF8202023F4704322F003
:10119000A00243EA013142EA0E12CCF81810CCF852
:1011A0002020DCF8081041F0670121F0100132E046
:1011B000D1E901E3C968DCF8082043EA0E0322F410
:1011C0007F4243EA01211143CCF80810DCF80810F3
:1011D00041F480411FE000BFD1F804E0C968DCF8A9
:1011E0002030DCF8202022F00102CCF82020DCF8AE
:1011F000182022F0F00242EA011123F00A0242EA2A
:101200000E02CCF81810CCF82020DCF8081041F0C1
:10121000570121F02001CCF808100022012180F8AC
:101220003D10002180F83C10104680BD0122F5E7FA
:101230007047000010B5016804460869800744BF84
:10124000C8685FEA807039D40869400744BFC8683D
:101250005FEA40703ED40869000744BFC8685FEA8F
:10126000007045D40869C00644BFC8685FEAC06022
:101270004AD40869C0071CBFC8685FEAC07051D172
:101280000869000644BFC8685FEA006052D4086974
:10129000400644BFC8685FEA406053D408698006CE
:1012A00046BFC8685FEA806010BD6FF0200220462C
:1012B0000A61BDE81040FFF7F9BC00BF6FF0020003
:1012C0000861012020778869800743D02046FFF716
:1012D000AFFF45E06FF004000861022020778869C5
:1012E00010F4407F40D02046FFF7A2FF42E000BF4D
:1012F0006FF00800086104202077C86980073DD09E
:101300002046FFF795FF3FE06FF0100008610820CE
:101310002077C86910F4407F3AD02046FFF788FF55
:101320003CE000BF6FF001000861204600F09CFA2D
:101330002168A5E76FF0800008612046FFF7B4FC44
:101340002168A4E76FF040000861204600F0E0FA51
:101350002168A3E7204600F069F8204600F008FA6B
:101360002168002020776FE7204600F05FF82046D4
:1013700000F0FEF92168002020776CE7204600F09D
:1013800055F8204600F0F4F921680020207769E73D
:10139000204600F04BF8204600F0EAF921680020D2
:1013A000207766E72DE9F04186B000680025C4F299
:1013B0000105A84202D006B0BDE8F081002643F640
:1013C00030000196C4F20200016801AC41F0010155
:1013D000016001684FF0020801F0010101910199DB
:1013E00001960168012741F0020101600068214671
:1013F00000F00200019001984FF4F060019005F5B3
:101400008030CDE9028604960597FEF7FBFF0320A6
:10141000CDE9010805F582302146CDE9036605973F
:10142000FEF7F0FF06B0BDE8F08100007047000055
:101430002DE9F04390F83C30012B04BF0220BDE8B9
:10144000F0834FEAB202032A3AD8DFE802F0034100
:101450007DB700BF036800261A6AC4F2010622F0B5
:1014600001021A621D6A1A465C6852F818CFB3422C
:101470008E68D1F800E025F0020545EA06050CD19A
:10148000CE68D1E9057824F4407425F00C0526F0E7
:1014900004063C43354344EA08042CF0730747EA4A
:1014A0000E075C609F614F6809695F631D629F69F9
:1014B00047F008079F619F6927F004079F61ACE030
:1014C0000121002280F83C200846BDE8F08300BFDF
:1014D000036800261A6AC4F2010622F010021A629A
:1014E0001D6A1A46D3F804C052F8184FB3428E68EA
:1014F000D1F800E025F0200545EA06150FD1CE68A9
:10150000D1E905986FF0400707EA06162CF440670A
:1015100025F0C00547EA8907354347EA880C24F4DB
:10152000E64444EA0E27C3F804C09F614F68096986
:101530009F631D629F6947F400679F619F6927F45D
:1015400080679F6168E000BF036800261A6AC4F2E2
:10155000010622F480721A621D6A1A46D3F804C08A
:1015600052F81CEFB3428E680C6825F4007545EA0A
:1015700006250FD1CE68D1E90598360240F2FF4723
:10158000BE432CF4405725F4406547EA091735431C
:1015900047EA081C2EF073072743C3F804C0DF6135
:1015A0004F680969DF631D62DF6947F00807DF6183
:1015B000DF6927F00407DF612FE000BF0368002721
:1015C0001A6AC4F2010722F480521A621A46D3F84A
:1015D00020C05D6852F81C4FD1F800E08E68BB4215
:1015E00004D14F6925F4804545EA87152CF400574E
:1015F00047EA063724F4E64646EA0E265D60DE61D9
:101600004E6809691E641F62DF6947F40067DF6185
:10161000DF6927F48067DF610902136819431160ED
:101620000021002280F83C200846BDE8F08300003D
:10163000002804BF0120704710B5044690F83D0013
:1016400028B9002084F83C00204600F08FF80220E2
:1016500084F83D00206840F2FF730268C4F2000382
:1016600040F2000C9842C4F2010C1DDD40F600016E
:10167000C4F20001884220D060451ED040F60041EF
:10168000C4F20001884218D04FF6FF71C4F2000185
:1016900088421CDC984225DCB0F1804F3AD040F201
:1016A0000041C4F2000133E0B0F1804F05D040F2B8
:1016B0000041C4F200018842E6D1A16822F0700224
:1016C0000A434FF6FF71C4F200018842E2DD44F2A2
:1016D000FF31C4F20101884210DC60451AD044F2A7
:1016E000000113E040F60001C4F20001884211D06D
:1016F00040F60041C4F200010AE000BF44F60001D8
:10170000C4F20101884205D044F20041C4F2010153
:10171000884203D1216922F440720A43A36922F06E
:101720008001D4F804E0E268194360450160C262B8
:10173000C0F828E002D16169CCF830100121416184
:10174000002084F8461084F83E1084F83F1084F896
:10175000401084F8411084F8421084F8431084F853
:10176000441084F8451084F83D1010BD7047000007
:101770007047000041B1082910D0042914BF00F1BE
:10178000410200F13F020BE090F83E20012A1CBF0D
:1017900001207047022280F83E2013E000F1400251
:1017A0001278012A1CBF012070470222082907D0A5
:1017B000042914BF80F8412080F83F2002E000BFD8
:1017C00080F84020006801F01F010122036A8A406E
:1017D00023EA02010162036A4421C4F201011A43AF
:1017E000A1F144039842026216D040F6FF31C4F2E0
:1017F000000188421ADCB0F1804F28D040F200414D
:10180000C4F20001884222D040F60001C4F2000177
:1018100088421CD022E000BF0A6842F400420A60FD
:1018200040F6FF31C4F200018842E4DD40F6004199
:10183000C4F2000188420AD044F20001C4F201015E
:10184000884204D00021C4F20101884206D1816897
:1018500001F00701062904BF00207047016841F02C
:1018600001010160002070472DE9F04F81B040F286
:10187000800BC2F2000BBBF80070384601F0E8F9AB
:1018800040F2000AC2F2000A9AED020B024658EC3E
:10189000109B0B464846414601F06CFCBAF80050DC
:1018A00004460028284618BF3C4601F0D1F90246FC
:1018B0000B464846414601F05DFCBAF80260074617
:1018C0000028304618BF2F4601F0C2F902460B46E9
:1018D0004846414601F04EFC611C002818BF3046C6
:1018E000ABF8001040F21411C2F200010A5D34237B
:1018F000C4F201031A607A1CCF5DAAF800205F6071
:10190000421C085CAAF80220986001B0BDE8F08F84
:1019100070470000FEE70000FEE70000FEE7000061
:101920007047000070470000FEF750BEB0B592B09F
:10193000002443F640000B94CDE90944CDE9074467
:101940000594CDE90344CDE901440094C4F20200BA
:101950000168022541F080510160006800F080506C
:101960000090009847F200000094C4F20000016863
:1019700065F38F310160006800F4404000900098EA
:101980000120099010200A9008200E905420CDE9E3
:101990000F050420119006A80695CDE90C54FEF71A
:1019A000B1FF28B1EFF3108072B600BFFEE700BFB1
:1019B0000F20CDE901054FF48050CDE9040401A8C2
:1019C00002210394FEF7B8FE20B1EFF3108072B647
:1019D000FEE700BF12B0B0BD4EF68850CEF2000058
:1019E000016841F4700101607047000040F2CC00D2
:1019F000C2F20000FFF71EBCFEE70000000000007E
:101A00002DE9F04F81B02DED048B86B040F200043B
:101A1000C2F200046568002D65D094ED029B9FED35
:101A20004C8B51EC190B53EC182B01F0B1FB002837
:101A300059D19FED490B9FED4A1B51EC100B9FEDC7
:101A40004A0BCDE9041051EC110BCDE902109FEDCA
:101A5000481B55EC100B9FED480B57EC116B4FF0EA
:101A6000000A59EC108B0190DDE9041053EC192B9E
:101A70001FFA8AFB00F010FFDDE9023201F074F971
:101A8000019A2B4600F008FF02460B4651EC180B5A
:101A900001F06AF941EC100B00F0BAF951EC100BAF
:101AA00032463B4601F060F942464B4600F040FEAC
:101AB00001F088F840F21411C2F200010AF1010AA3
:101AC00001F80B001FFA8AF001F0C2F894ED029BB6
:101AD00002460B4641EC180B51EC190B01F04AFB86
:101AE0000028C1D1656844F62060B0FBF5F001F034
:101AF000AFF841EC100B064684ED020B9FED200B76
:101B000040F280000F46C2F20000002158EC105B4A
:101B10000180304639462A46434600F0BDFE01F0BA
:101B200051F820803046394632463B4600F000FEF0
:101B30002A46434600F0B0FE01F044F8608006B04B
:101B4000BDEC048B01B0BDE8F08F00BF00BF00BF4B
:101B5000000000000000000000000000008076404F
:101B6000182D4454FB21094000000000008066400D
:101B70000000000000005440000000000000594038
:101B8000000000000000084096B0FEF72DFDFFF7B2
:101B9000CDFE002143F630000091C4F2020002683D
:101BA0004FF0320E42F0800202600268802502F09F
:101BB00080020092009A00910268142342F0010210
:101BC00002600268202402F001020092009A009153
:101BD00002684FF0C70C42F0020202600068002267
:101BE00000F002000090009840F28400C2F2000071
:101BF000C4F201021591CDE91311CDE91011CDE91F
:101C00000611CDE90411CDE90211CDE9001180E8FA
:101C10001C10C0E9041E8561FFF726F920B1EFF31F
:101C2000108072B6FEE700BF4FF48050129040F271
:101C30008400C2F2000012A9FFF72CFA20B1EFF3E2
:101C4000108072B6FEE700BF40F28400C2F20000CE
:101C5000FFF7EEFC20B1EFF3108072B6FEE700BF95
:101C600040F28400C2F2000010A9FFF747F828B143
:101C7000EFF3108072B600BFFEE700BF602008904F
:101C80000020CDE90900CDE90B00CDE90D0040F2BF
:101C90008400C2F2000008A90022FFF7C9FB28B1A6
:101CA000EFF3108072B600BFFEE700BF40F2840081
:101CB000C2F2000008A90422FFF7BAFB20B1EFF33B
:101CC000108072B6FEE700BF40F28400C2F200004E
:101CD00008A90822FFF7ACFB20B1EFF3108072B621
:101CE000FEE700BF00243220CDE903044FF400508A
:101CF00005904FF48040079040F28400C2F200004B
:101D00006946CDE900440294FEF7D2FF20B1EFF31B
:101D1000108072B6FEE700BF40F28400C2F20000FD
:101D2000FFF740FB40F2CC00C2F200004FF08041D0
:101D3000C7230394CDE90144CDE90844142280E887
:101D40001600C0E903348461FFF78EF820B1EFF389
:101D5000108072B6FEE700BF4FF48050009040F252
:101D6000CC00C2F200006946FFF794F920B1EFF30E
:101D7000108072B6FEE700BF40F2CC00C2F2000055
:101D800008A9FEF7BBFF18B1EFF3108072B6FEE7AB
:101D9000FFF736FE40F28404C2F200042046002120
:101DA000FFF7E8FC20460421FFF7E4FC2046082169
:101DB000FFF7E0FC20460021FEF7E8FF2046042163
:101DC000FEF7E4FF20460821FEF7E0FF40F2CC00DA
:101DD000C2F20000FFF71CF9FEE703B401984100CE
:101DE000009850EAC12018BF04204A0D18BF40F0E7
:101DF000010040F2FF72B2EB515F08BF40F00200F9
:101E0000012808BF052002B0704700000000000054
:101E100010B52F499FED2C1B2DED020B84B00598BA
:101E200020F000408842DCBF00209DED040B32DD35
:101E30002849884209D1049840B94FF00100FEF7C3
:101E400099FA00F03DFC06B010BD05DB9DED040BDA
:101E500000F02AFC06B010BD68469DED040B00F0B2
:101E60003BF810F0030011D0012818D09DED021BA3
:101E70009DED000B02281AD000F04AFA51EC100B2D
:101E800000F04AFC06B041EC100B10BD9DED021BAA
:101E90009DED000B012000F06FFB06B010BD9DED25
:101EA000021B9DED000B00F033FA06B010BD0120BF
:101EB00000F062FB51EC100B00F02EFC06B041EC80
:101EC000100B10BD0000000000000000000000002A
:101ED000FB21E93F0000F07F2DE9F14F04462DED95
:101EE000020B2DED088B8AB09FEDE70B80ED020B06
:101EF000139EE74826F0004585420ADC9DED120B53
:101F0000002084ED000B0AB0BDEC088B03B0BDE8E7
:101F1000F08FE0489FEDE0AB9FEDE1BBA84247DDCD
:101F2000E14F9FEDE39B9FEDE48B9DED120B53EC96
:101F30001A2B51EC100B002E1CDD01F01FF841ECA8
:101F4000100BBD4208D053EC1B2B51EC100B01F0D1
:101F500015F8C4E900010BE053EC192B51EC100B00
:101F600001F00CF853EC182B01F008F8C4E900015B
:101F70000120C8E700F0DCFB41EC100BBD4208D0AB
:101F800053EC1B2B51EC100B00F0D2FBC4E9000109
:101F90000BE053EC192B51EC100B00F0C9FB53EC88
:101FA000182B00F0C5FBC4E900014FF0FF30AAE791
:101FB000C348A84279DB9DED120B51EC100B00F0E9
:101FC0009FFB41EC180B9FEDC00B53EC102B00F066
:101FD000CBFE9FEDBF1B53EC112B00F0A9FB00F0D3
:101FE000F1FD074600F01DFE41EC190B53EC1A2BD6
:101FF00000F0BAFE53EC182B00F0B4FF41EC180BC4
:1020000053EC1B2B51EC190B00F0AEFEDFF8C8A20D
:1020100041EC100B4FEA15580125FA4453EC102BF4
:1020200051EC180B00F0AAFF032DC4E900013DD0CC
:10203000C1F30A5005EB4511A8EB000011398142AC
:1020400034DA0AEB051BB0EE48AA9BED000BF0EE6C
:1020500068AA53EC102B51EC190B00F085FE41ECF3
:102060001B0B51EC1A0B53EC1B2B00F087FF41ECC0
:10207000180B51EC1A0B53EC182B00F07FFF53ECAC
:102080001B2B00F07BFF9BED020B41EC1A0B53EC7A
:10209000102B51EC190B00F067FE53EC1A2B00F0DB
:1020A0006DFF41EC100B6D1CB8E70EE0002EA8BFD1
:1020B0003846BFF628AF94ED000B51EC100B00F042
:1020C0002BFBC4E9000178421DE7C6F3130040F47E
:1020D000801EC6F30A50A0F2F530471100F01F052C
:1020E000C5F12000DDF848B0089000200690079068
:1020F0000520EC467949002D07EB0002794408BF22
:1021000051F8221009D051F8223001EB8201AB4086
:102110004A68089922FA01F11943A1FB0E26A1FB96
:102120000B131A449A4234BF0123002303EB060821
:102130000CEB8003D3E901A60E448E4234BF01218B
:10214000002192448A4411B1924502D903E092459C
:1021500001D2012100E00021C3E901A641444CF86D
:102160002010011EA0F10100C4DC029800F1005013
:10217000850F0298DDE903678000DDF8148000F028
:1021800050FD41EC1A0B304600F062FD9FED541BF0
:1021900053EC112B00F0E8FD41EC1B0B384600F02E
:1021A00057FD9FED511B53EC112B00F0DDFD41EC71
:1021B000180B404600F04CFD9FED4D1B53EC112BCE
:1021C00000F0D2FD41EC190B51EC180B53EC192B1C
:1021D00000F0AEFA53EC1B2B00F0AAFA53EC1A2BCA
:1021E00000F0A6FACDE90801002008909DED080B4B
:1021F00053EC1A2B51EC100B00F0C0FE53EC1B2BD0
:1022000000F0BCFE53EC182B00F0B8FE53EC192B79
:1022100000F0A8FE9FED381B53EC112B00F0A4FD3D
:102220009FED370B41EC180B53EC102B9DED080B79
:1022300051EC100B00F098FD53EC182B00F078FADD
:102240009FED310B41EC180B53EC102B9DED080B5F
:1022500051EC100B00F088FD53EC182B00F068FADD
:1022600041EC100B139810F0004F06D06D4251EC6A
:10227000100B00F051FA41EC100B284684ED000BD6
:1022800041E6000000000000000000000000000027
:10229000FB21E93F7CD9024000004054FB21F93F7B
:1022A0003163621A61B4D03DFB21F93F00000000A8
:1022B0000000601A61B4D03D7370032E8A19A33BED
:1022C000FB2139410000000083C8C96D305FE43F45
:1022D000000000000000E03FDA11000028110000BB
:1022E000000000000000103E000000000000103C54
:1022F000000000000000103A182D4454FB21F93D65
:102300003326A611460B113C00000054FB21F93D79
:1023100010B52DED040B2DED088B82B0B0EE419A77
:10232000F0EE619A0B9820F000449FED4BABB4F1B6
:10233000795F11DA9DED0A0B51EC100B00F042FCB5
:10234000002801BFB0EE4A0AF0EE6A0A02B0BDEC06
:10235000088B04BF04B010BD9DED0A0B53EC102B8D
:1023600051EC100B00F000FD41EC180B3C4806212D
:10237000B0EE480AF0EE680A784400F081F853ECB9
:10238000182B51EC100B00F0EFFC9DED0A0B41EC0B
:102390001B0B53EC192B51EC100B00F0E5FC41EC3E
:1023A000190B53EC1B2B51EC180B00F0DDFC53EC1C
:1023B000192B00F0E3FD9FED2C0B41EC190B53ECB6
:1023C000102B51EC180B00F0CFFC41EC100B2848FF
:1023D000844210DA53EC192B51EC100B00F0CEFDB7
:1023E00053EC1A2B00F0BEFD41EC100B02B0BDEC1B
:1023F000088B04B010BD1F48A042BCBF9FED1E1B40
:102400008DED001B06DBA4F500100190002000906C
:102410009DED001B51EC100B53EC112B00F0AEFDA9
:102420009DED000B41EC180B53EC102B51EC1A0BEB
:1024300000F0A4FD41EC1A0B53EC192B51EC180BD6
:1024400000F09CFD53EC1A2B00F08CFD41EC100BBE
:10245000CCE7000000000000000000000000F03F9A
:102460004C0E000000000000000000000000E03FF3
:102470003333D33F0000E93F000000000000D23FAB
:1024800070B504462DED028B4D1E00EBC500B0EE7D
:10249000408AF0EE608A90ED000B35F0060017D010
:1024A00053EC182B51EC100B00F05EFC41EC100BC0
:1024B0006D1E04EBC50090ED001B51EC100B53ECAE
:1024C000112B00F035F941EC100B35F00600E7D187
:1024D000022D36D0042D1CD0062D1CBFBDEC028B66
:1024E00070BD53EC182B51EC100B00F03DFC94ED3B
:1024F0000A1B53EC112B00F01BF953EC182B00F0C6
:1025000033FC94ED081B53EC112B00F011F941EC56
:10251000100B53EC182B51EC100B00F025FC94ED34
:10252000061B53EC112B00F003F953EC182B00F0B1
:102530001BFC94ED040B53EC102B00F0F9F841EC6C
:10254000100B53EC182B51EC100B00F00DFC94ED1C
:10255000021B53EC112B00F0EBF853EC182B00F09E
:1025600003FC94ED001B53EC112B00F0E1F8BDECE3
:10257000028B41EC100B70BD31B504462DED040B00
:102580002DED0A8BB0EE41BAF0EE61BA0B989DEDDD
:102590000A0B20F00040B0F1795F0DDA51EC100B1E
:1025A000FFF71BFC042808BF00F09AF89DED0A0B0A
:1025B000BDEC0A8B05B030BD53EC102B51EC100B69
:1025C00000F0D2FB41EC180B9DED0A0B53EC182BDD
:1025D00051EC100B00F0C8FB41EC190B2C48B0EE8D
:1025E000480AF0EE680A05217844FFF749FF9FED9D
:1025F0002ACBB0EE40AAF0EE60AA9CB353EC1C2BA1
:1026000051EC190B00F0B0FB41EC1C0B53EC1A2BF6
:1026100051EC190B00F0A8FB9FED210B41EC190BBD
:1026200053EC102B51EC1B0B00F09EFB53EC192BC1
:1026300000F0A4FC53EC182B00F096FB53EC1B2B82
:1026400000F09CFC53EC1C2B00F098FC9DED0A1B49
:1026500053EC112B00F086FCBDEC0A8B05B041EC6D
:10266000100B30BDFFE753EC1A2B51EC180B00F0A8
:102670007BFB53EC1C2B00F05BF853EC192B00F0A8
:1026800073FB9DED0A1B53EC112B00F051F8E3E7AF
:10269000DC0C000000000000495555555555C5BFDC
:1026A000000000000000E03F10B553EC102B51EC8F
:1026B000100B00F03DF841EC100B10BD00000000C5
:1026C0009FED050B10B553EC102B51EC100B00F0E7
:1026D000E3F841EC100B10BD00000000000000000A
:1026E0009FED050B10B553EC102B51EC100B00F0C7
:1026F0003BFB41EC100B10BD00000000000000107F
:1027000082B0CDE9000121F0004001909DED000B69
:1027100002B051EC100B704781F00041704780F01F
:102720000040704721F00041704720F000407047A2
:1027300010B591EA030F48BF83F0004300F12684EF
:10274000841A71EB030C05D2121943EB0C03001B26
:1027500061EB0C014FEA1154A4EB135CDFF81CE1B0
:102760001EEA430F18BF9EEA445F00F0748021EA1E
:10277000045123EA0E0343F48013DCF1200E32D31C
:1027800022FA0CFE10EB0E0023FA0CFE41EB0E01B8
:10279000CCF1200E03FA0EFE10EB0E00CCF1200E51
:1027A00051F10001B1F5801F32D201EB045112FA50
:1027B0000EF2BDE8104058BF7047401C38BF5FEABA
:1027C000420218BF7047002814BF20F0010041F1F9
:1027D00000014FEA410313F5001F38BF7047A1F114
:1027E000C04100F0B9BB012A43EB0302ACF1200C5D
:1027F000DCF11F0E32BF4FF0000E23FA0CF310EB8A
:10280000030041EB0451B4EB115FD0D0A1EB0451B4
:1028100001F58011490801EB04515FEA30000ED345
:1028200050F1000038BF12FA0EFE08D1BDE810408A
:10283000C9E7401C38BF5FEA4202CAD1C3E7BDE81E
:1028400010404FEA410313F5001F38BF7047A1F154
:10285000C04100F081BB9EEA445F08D011EA5E0FE0
:10286000BDE8104004BF01F0004100207047BDE802
:10287000104070B500F022FB64FBBE3E0000E0FF9C
:10288000491058BFC1F140415B1058BFC3F14043EC
:102890008B42EFF3008070472DE9C04130B4DFF880
:1028A000A4C23CEA111418BF3CEA131400F0ED80F6
:1028B0001CEA111481EA030544EAD57418BF1CEA26
:1028C000131500F0C880A4EB050404F17F7404F52F
:1028D00000344FF0004545EAC12145EAC32341EAEF
:1028E000505143EA52534FEAC0204FEAC222994264
:1028F00008BF904200F09D804FEA13650FF2441626
:10290000765D4FEA134506FB05F7C7F1807706FBB6
:1029100007F74FEAD737A7FB03687642A7FB06CE37
:10292000C8F5803838BFA8F1010807FB08E6A6FB08
:10293000028C4FF0000EE6FB03CEDCF1000CCEF172
:10294000004E38BFAEF1010EA6FB0C584FF0000749
:10295000E6FB0E87A1FB08C6A0FB07CE16EB0E0612
:102960004FF0000545F10005E1FB076515F1E04E6C
:102970007EBFA4F580345FEA46066D4116F18007FC
:1029800045F100054FEA172747EA05674FEA152585
:102990004FEA0666A6F1DE46B6F1805F20D93846DA
:1029A00005EBC47124F0010C01EB0C11BCF1FE6FBE
:1029B00002D8F0BCBDE8008124425CBF01F5801E56
:1029C0009EEAC47F02D4F0BCBDE80081244200F13D
:1029D0003980A1F1C041F0BCBDE8004100F0BCBAB3
:1029E0004FEAD02040EA41504FEAD1214FEAD222AB
:1029F00042EA43524FEAD323A7FB028607FB036652
:102A000005FB02661EEA0E0F58BFA6EB0056B6EB9A
:102A100000564FEA520E4EEAC37E18EB0E0E56EBEE
:102A2000530EBCD518EB02085E417F1C55F1000522
:102A3000B5E74FF480154FF000074FF000064FF058
:102A40000008ACE701F1C04101F000414FF0000087
:102A5000F0BCBDE800810CEA131511EA0C1F00D090
:102A60000CE013EA0C1F00F026804FF0000081EA12
:102A7000030101F00041F0BCBDE80081F0BCBDE8FD
:102A8000004181EA030100F067BAF0BCBDE80041F3
:102A900070B500F013FA00BF097EFC3E00F007B8E5
:102AA0004FF0000081EA030101F00041704781EA24
:102AB000030100F051BAF0BCBDE8004122494FF0DB
:102AC00000007047FFFDFBF9F7F5F4F2F0EEEDEBD7
:102AD000E9E8E6E4E3E1E0DEDDDBDAD8D7D5D4D31C
:102AE000D1D0CFCDCCCBCAC8C7C6C5C4C2C1C0BF68
:102AF000BEBDBCBBBAB9B8B7B6B5B4B3B2B1B0AF6E
:102B0000AEADACABAAA9A8A8A7A6A5A4A3A3A2A151
:102B1000A09F9F9E9D9C9C9B9A999998979796950C
:102B200095949393929191908F8F8E8E8D8C8C8BA8
:102B30008B8A898988888787868585848483838230
:102B4000828181800000FF070000F87F51EA030CBA
:102B500017D41CF5801F58BFBCF5801F00F10680FC
:102B6000994218BF704708BF9042704707D711F5C8
:102B7000801F58BF13F5801F19D4994270478942AE
:102B800070471CF5801F08D5BCF5801FF7D58B4218
:102B900018BF704708BF824270474FF4001C1CEBFF
:102BA000410F38BF1CEB430F01D28B42704770B509
:102BB00000F084F9922449004FF000514FF0805307
:102BC000FFF75EBE4FEA41034FEA5353A3F580631C
:102BD000D3F11E03C8BFD3F1210C0CDD4FF000422E
:102BE00042EAC12242EA505232FA03FC8CEAE17C0A
:102BF000ACEBE1707047102BC4BF0020704703F5A9
:102C0000787CBCF1FF3F04D06FF0004282EA2100E3
:102C1000704770B500F052F9499224800020704747
:102C2000F2E710F0004248BF4042B0FA80F310FAD9
:102C300003F10AD0C3F11D0303F5806302EB0352D5
:102C40004FEA415002EBD12170474FF0000070472E
:102C5000B0FA80F310FA03F10AD0C3F11D0303F5B3
:102C600080634FEA03524FEA415002EBD121704793
:102C70004FF000007047000051EA030C17D41CF518
:102C8000801F58BFBCF5801F00F10680994218BF15
:102C9000704708BF9042704707D711F5801F58BF93
:102CA00013F5801F19D499427047894270471CF56B
:102CB000801F08D5BCF5801FF7D58B4218BF704721
:102CC00008BF824270474FF4001C1CEB410F38BF15
:102CD0001CEB430F01D28B42704770B500F0EEF849
:102CE000922449004FF080514FF00053FFF7C8BDC8
:102CF00051EA030C17D41CF5801F58BFBCF5801F88
:102D000000F10680994218BF704708BF9042704793
:102D100007D711F5801F58BF13F5801F19D49942AA
:102D20007047894270471CF5801F08D5BCF5801F8D
:102D3000F7D58B4218BF704708BF824270474FF4E7
:102D4000001C1CEB410F38BF1CEB430F01D28B4220
:102D5000704770B500F0B2F8922449004FF000516E
:102D60004FF08053FFF78CBD70B5DFF848C11CEA07
:102D7000111E1EBF1CEA13159EEA0C0F95EA0C0FDC
:102D800000F06F8081EA03044EEAD47EAE4421EA6B
:102D90004C1123EA4C1341F4801143F48013AEF13B
:102DA0007F7EA1FB024CA0FB0365361955EB0C0599
:102DB000A1FB034C4CF10003A0FB021C16EB0C061C
:102DC000654153F10003094218BF46F0010613F4B0
:102DD000007F0BD14FEA03314FEA053041EA15512C
:102DE00040EA165034036FF003020AE04FEAC321B1
:102DF0004FEAC52041EA555140EA5650F4026FF0BF
:102E0000020202EB2E4201EB025585EACE710AD096
:102E10005FEA440C18BF24F0004450F1000041F177
:102E2000000120EAD47040F2FE7C624500D270BD01
:102E3000A84214BF4FF080444FF04044002E08BF1A
:102E40000024BEF1806FA8BFA1F1C041BDE8704071
:102E500080F2828001F1C04101F000414FF000009A
:102E600070470CEA13159EEA0C0F18BF95EA0C0F79
:102E700006D081EA030E4FF000000EF0004170BD55
:102E800000F01CF88900013E00F007B800F009B816
:102E90004FEA430C5FEA5C5C08D081EA030100F072
:102EA0005BB84FEA410C5FEA5C5CF6D102494FF037
:102EB000000070470000FF070000F87F0EF1020ECF
:102EC0002EF0030E5EF8046B364205D4012A43EB64
:102ED000030515F5001F12D8012841EB010C1CF564
:102EE000001F0CD80ED14FEAD17C0CEB4C0C0CF12E
:102EF000020C15F5001F08BF4CEBD37C04E04FF02B
:102F0000080C01E04FEAD37C0CEB4C0526FA05F6E1
:102F100006F00706B6F1040C06D20EEB860CBDE8EF
:102F200070404CF0010C6047DFE80CF0090B020226
:102F30004FF00041A1F500214FF0000070BD19468F
:102F40001046012851EB010418BFD4F5001484BFCA
:102F5000002001F0004170BD0808A0F500114FEA03
:102F60003101704710B591EA030F81F000413FF540
:102F7000E7AB83F0004300F009B8000010B591EA18
:102F8000030F48BF83F000433FF5DAAB841A71EBBF
:102F9000030C07D28CF0004C121943EB0C03001BFE
:102FA00061EB0C014FEA1154A4EB135CDFF8A4E1D0
:102FB0001EEA430F18BF9EEA445F00F0B48021EA86
:102FC000045123EA6E035242C3EB6E0338BF5B1E0B
:102FD000DCF1200E25D322FA0CFE10EB0E0043FA92
:102FE0000CFE41EB0E01CCF1200E03FA0EFE10EBAD
:102FF0000E00CCF1200E51F1000129D401EB045157
:1030000012FA0EF2BDE8104058BF7047401C1CBFBA
:10301000B2F1004F704700280CBF491C20F001009E
:10302000704712EB020E43EB030218BF4FF0010E84
:103030004EEA4202ACF1200CDCF11E0E56D943FAE6
:103040000CFE10EB0E00CCF11E0E51F1FF31D5D568
:103050000EF1010E12FA0EFE404141EB010101EBAF
:10306000445C5FEA5C5C10D901EB045110EBDE704C
:1030700038BFBEF1004FBDE8104018BF70470028B0
:103080000CBF491C20F00100704734D24FEAD42C09
:1030900024F4006411F500111BD0B1FA81F20B3A4F
:1030A000A41AA41ED2F12003914030FA03F319436D
:1030B000904001EBCC7101EB0451002CBDE81040B5
:1030C000A8BF704701F1C04101F000414FF000007E
:1030D0007047B0FA80F310FA03F102D1BDE8104056
:1030E0007047E41A173C4805C90AE2E701EB0451AE
:1030F000BDE81040704749104FEA300001EB045121
:10310000BDE8104002E04FF0000170474A0008BFE0
:103110000042F8D0B2F5001F28BF704701F000410F
:103120004FF0000070479EEA445F07D011EA5E0F3F
:10313000BDE8104004BF002100207047BDE81040EA
:1031400070B5FFF7BBFE00BF40DFF63E104683F0D0
:10315000004170470000E0FF10B5FFF7F7FC0CBF1F
:103160000120002010BD10B5FFF7F0FC14BF0120B6
:10317000002010BD10B5FFF77FFD8CBF012000209F
:1031800010BD10B5FFF778FD2CBF0120002010BD49
:1031900010B5FFF7ADFD94BF0120002010BD10B5A4
:1031A000FFF7A6FD34BF0120002010BDF1EE100A8C
:1031B0004FF6FF71C0F2C03120EA010040F04070CC
:1031C000E1EE100A704700004C5555555555A53F86
:1031D0007751C1166CC156BF9015CB19A001FA3EAC
:1031E000AD529C804F7E92BEC4B1B4BD9EEE213ED6
:1031F000D43888BEE9FAA8BD00004054FB21F93F4D
:103200003163621A61B4D03D0000601A61B4D03DF0
:103210007370032E8A19A33B0000002E8A19A33B6A
:10322000C14920259A837B3900000000000000007E
:103230006E83F9A22915444ED15727FCC0DD34F521
:10324000999562DB4190433CAB6351FE61C5BBDEA7
:103250003A6E24B7E0D24D42EA2E49061C92D109BB
:103260001CEB1DFE3EA729B1F53582E88444BB2E38
:1032700026709CE9417E5FB439D69139F439538385
:103280008B5F849C3B28F9BDFF97F81F0F9805DEE4
:103290008B112FEF1F6D0A5ACF7E366DB709CB27E2
:1032A000663F464F2DEA5F9EC7BA27757BF1E5EB77
:1032B000F739073DEA92528AB15FFB6B085D8D1FBB
:1032C0004630035600000000A6F810111111813F8E
:1032D000D561C119A0012ABF7DFEB157E31DC73ECC
:1032E000EB9C2B8AE6E55ABE7CD5CF5A3AD9E53D10
:1032F00000000000000000000102030406070809A6
:10330000203300080000002020000000D001000849
:103310004033000820000020C80E0000EC01000827
:1033200085000A01320000000000000000F0784033
:1033300001000000100000000024F4000000000064
:040000050800019559
:00000001FF
